S0110000416D7065726D6574722E7372656366
S113000012C02CC02BC02AC029C028C027C026C0BB
S113001025C087C023C022C021C020C0C1C01EC0CB
S11300201DC01CC01BC011241FBECFE5D4E0DEBF21
S1130030CDBF10E0A0E6B0E0E4ECF2E002C0059031
S11300400D92AA36B107D9F720E0AAE6B0E001C0C4
S11300501D92A537B207E1F7D6D032C1D1CFCF93E5
S1130060DF93AC0110927100109272001092730031
S113007010927400009751F551C09A01ADECBCEC9C
S113008013D19695879596958795969587959C0116
S1130090220F331F880F991F880F991F880F991FEC
S11300A0820F931F9A01281B390B21939A01FCD0CC
S11300B0AC01569547955695479556954795EC1737
S11300C0FD0761F141155105C1F628C09C01ADEC55
S11300D0BCECEAD0969587959695879596958795E5
S11300E09C01220F331F880F991F880F991F880FB7
S11300F0991F820F931F9A01281B390B20937100BB
S11301009A01D2D0AC015695479556954795569588
S11301104795E2E7F0E0C5E7D0E0D4CFDF91CF9197
S113012008951F920F920FB60F9211242F933F93AD
S11301304F938F939F93EF93FF93E0917000F0E0C0
S1130140EF58FF4FE081F0E0E05AFF4F808188BB19
S113015045B321E030E0C9010090700002C0880F6F
S1130160991F0A94E2F7942F907F892B85BB809185
S113017070008F5F843019F08093700002C0109279
S1130180700088B7816088BFFF91EF919F918F9134
S11301904F913F912F910F900FBE0F901F90189584
S11301A01F920F920FB60F9211242F933F938F93A8
S11301B09F9384B190E090936B0080936A0025B183
S11301C0922B90936B0080936A0020916E00309183
S11301D06F00820F931F90936F0080936E00809145
S11301E06C0090916D00019690936D0080936C006B
S11301F0369A349A9F918F913F912F910F900FBE11
S11302000F901F90189587B38FEF87BB88B388BB77
S113021084B38F6084BB85B3807F85BB81B38C7FBF
S113022081BB82B3836082BB83B7836083BF83B7A0
S11302308B7F83BF89B7816089BF88B7816088BF9E
S113024087B1806C87B987B1856087B987B1857FAD
S113025087B93D9886B1876086B93598339A379ABD
S1130260369A349A789480916C0090916D0081153F
S11302709140C9F780916E0090916F00892F992762
S1130280880F991F90936F0080936E0080916E0089
S113029090916F00E4DE10926F0010926E00109245
S11302A06D0010926C00DFCFA29FB001B39FC0011C
S11302B0A39F01D0B29F700D811D1124911D08953B
S10702C0F894FFCFDC
S10D02C43F065B4F666D7D077F6FF8
S9030000FC
